:020000040800F2
:10000000E8130020316A00081D6500081F6500081C
:1000100000000000000000000000000000000000E0
:100020000000000000000000000000002165000842
:10003000000000000000000023650008256500089E
:10004000BF100008000000005F120008B71700088A
:10005000BB170008BF170008EB520008275800081C
:1000600000000000335C0008575C00089B5F00083C
:10007000AF680008076A0008136A00080000000063
:10008000416A0008436A0008456A0008476A000898
:10009000496A00084B6A00084D6A00084F6A000868
:1000A000516A0008536A0008556A00086D65000827
:1000B000F1650008776600080100202008437047BA
:1000C000FDB5B2B03A98049102A93B2288540020B1
:1000D0000D9027A8401C31900DE00498329A90476B
:1000E0000490002801D100F0CDFE0D98401C0D9029
:1000F0003398401C339033980178002910D025297B
:10010000EBD100200790089009900A900B900C907A
:10011000002102250120149008201290339C05E054
:100120000D9800F0B1FE080014990143641C20787A
:100130002028F8D023280BD02B2804D02D2804D039
:10014000302808D00AE02943F0E708000421ECE752
:1001500008000821E9E708001021E6E72A280FD166
:10016000349802681068121D349B1A600F900028A2
:1001700004D542420F92080004210143641C12E09E
:1001800000200F90644A09E00F9B934205DA9E001D
:10019000F3185B00181830380F90641C20780300A7
:1001A000303B0A2BF0D320782E2803D00020C04308
:1001B0000E9027E0641C20782A2808D13498006823
:1001C0000268001D349B18600E92641C1AE02D28F2
:1001D00002D12D22641C00E0002200200E900CE0D1
:1001E000002A09D10E9B4C4EB34205DA9E00F3184B
:1001F0005B00181830380E90641C20780300303BE8
:100200000A2BEDD302A801872678310040487844B4
:10021000FF30401E00F012FF002801D0641C00E0F7
:10022000002602A83A214654405C682804D1207870
:1002300068280BD1622005E06C2807D120786C2853
:1002400004D1712002A93A228854641C18A806908F
:10025000207869460870601C339068460478200056
:10026000253833D01C3800D1CCE1001F022800D83B
:10027000C8E1133801D100F02FFD093800D1C1E1E8
:10028000801E01D100F0C5FD401E01D100F072FDBD
:10029000401E022800D8B5E1001F01D100F06AFD20
:1002A000401F00D108E1401E01D100F015FD401EA5
:1002B00000D1F0E0C01E0ED0801E01D100F00CFD78
:1002C000C01E01D100F008FD00F0AEFD14980790AB
:1002D000252018A97CE1349800680468001D349931
:1002E00008600594002C00D0C1E002A83B21405CCE
:1002F000002800D1B5E00024E443064878441430D7
:1003000000F0A6FE201A01D000F0BCFD00F099FD1F
:100310003465000068650000CBCCCC0C01236A4634
:1003200002A9280000F06AFE002801D000F0AAFD12
:10033000641EF3D13295079D18AC002D0FD0329E6C
:1003400021780498B0470490002801D100F09AFD6C
:100350000D98401C0D90641C6D1EF1D1329630201A
:10036000694608700A9C002C0DDD329D01236A4607
:1003700002A9280000F042FE002801D000F082FD12
:10038000641EF3D13295059C089D002D0FD0329E3E
:1003900021780498B0470490002801D100F072FD44
:1003A0000D98401C0D90641C6D1EF1D132963027C3
:1003B00069460F700B9C002C0DDD329D01236A46AF
:1003C00002A9280000F01AFE002801D000F05AFD12
:1003D000641EF3D13295059808994418099D002DA3
:1003E0000FD0329E21780498B0470490002801D1A4
:1003F00000F048FD0D98401C0D90641C6D1EF1D15D
:100400003296684607700C9C002C0DDD329D01234E
:100410006A4602A9280000F0F1FD002801D000F092
:1004200031FD641EF3D1329502A83821405C4007AB
:1004300000D460E62020694608700198002800DC9E
:1004400059E6019C329D01236A4602A9280000F06A
:10045000D5FD002801D000F015FD641EF3D13295C2
:1004600049E61B4878446830059000F0EAFC0E9D90
:10047000002D03D5200000F00FFE09E02A00002126
:10048000200000F011FE002801D0001B00E0280031
:10049000089000F0D6FC349800680268001D34997A
:1004A00008600020C0430021104002AA03C218A81F
:1004B0000590782100F0A9FC02A83B21415C0029AD
:1004C00008D00024E4434B487844FF30293017E734
:1004D000C86300003A21405C62286AD0682819D0BD
:1004E0006A2845D06C2806D071284FD0742831D0A6
:1004F0007A2821D06FE0349800680168001D349A92
:10050000106000297AD10024E4433B487844FF304E
:100510001738F5E6349800680168001D349A1060B9
:10052000002905D10024E44333487844CA30E7E683
:100530000D98088000F085FC349800680168001D63
:10054000349A1060002959D10024E4432A487844A1
:10055000A630D5E6349800680168001D349A106012
:1005600000294BD10024E443234878448A30C7E66D
:10057000349800680268001D34990860002A13D17D
:100580000024E4431C4878446E30B9E6349800688F
:100590000268001D34990860002A05D10024E44354
:1005A000154878445230ABE60D98C11703C200F0ED
:1005B00048FC349800680168001D349A10600029D6
:1005C00005D10024E4430C4878442C3098E60D987B
:1005D000087000F036FC349800680168001D349AF9
:1005E000106000290AD10024E4430348784408300D
:1005F00086E600BF586200006C6200000D9808603B
:1006000000F01FFC34980068C21D07208243349814
:10061000026003CA349B1A6002AA03C22022C80FD8
:1006200004D007982D2118AA11540DE002A8008FBC
:10063000284204D007982B2118AA115404E0C007BF
:1006400004D5079818A90A54401C079018A80799C0
:1006500040181390059027AD02A803C816AA03C23C
:10066000684600782021014368468170612909D0DD
:100670000E98002801D5062003E003D1672901D197
:1006800014980E9002A803C80F0006187F417E152B
:10069000FF17BBA20CCA9F4212D1964210D1090388
:1006A000020D11430003002901D1002808D00320C6
:1006B0000890613C1A2C19D3244979448E3110E0FA
:1006C00002A803C8080041004915994212D100034D
:1006D00010D103200890613C1A2C21D31C49794485
:1006E0006E310322139800F005FDAAE319497944FD
:1006F0006231F6E701AA02A803C800F008FD02AAC9
:1007000003C268468078612813D1059830210170B2
:10071000811C059169460978612905D1782104E099
:100720000D4979443231DCE7582141700798801C2B
:10073000079002A803C894A20CCA02400B400DD136
:10074000002A0BD10024002663E100BF54610000A1
:1007500058610000486100004C61000068468078E4
:10076000612800D096E00E98002801D5212000E0F5
:10077000401C1390139F7F1C16A803C8002200235F
:1007800000F0DAFC02A830C802D280200006454002
:100790000198001F019027A90A7027A8461C002F66
:1007A00031DD20002900002280235B0300F0DDFC06
:1007B00029D81C2200F0F2FC04000D0000F026FDF8
:1007C0001590FF1F002F09DD00F05AFD02000B00FD
:1007D0002000290000F0C1FD04000D00F01D0721DC
:1007E000159A002A0ADD491E08D4401E13071B0F64
:1007F00003701211F5E7401E00220270491EFAD55F
:10080000C61D002FCDDC27A83199711A27AA551CC7
:10081000139A0C00914200DD1400002C33D48C425A
:1008200005DA411C095D082901DB0F2100E00021E8
:10083000220027AB9B1801E0641E5B1E521E1E782F
:100840008E42F9D00F2904D1411C895C491C401CFF
:100850008154002A04D527AD641C0198001D019025
:10086000611E10D46A186846007813783033DEB2FF
:100870003A2E01DBC318C6331370491E521E0029DD
:10088000F3D5694608700E98002800D4C0E0601EB9
:100890000E90BDE016A830C86D006D0801986B4938
:1008A00048436B4900F0D0FD019007200199401AA0
:1008B000002805DD02002000290000F079FB0AE095
:1008C00042420020634900F073FB02000B0020004D
:1008D000290000F0E8FD6A469278662A02D1019A62
:1008E0000A3200E006220E9B9A18142A00DD142218
:1008F00027AB30241C705C1C02E016A803C8139AB6
:10090000002A45DD16AB03C3139216A803C800F0F6
:100910008FFC159006460834042530000A2100F0AB
:10092000A7FD0F0030000A2100F0A2FD06003037BD
:10093000601E077030000A2100F09AFD0F003000A1
:100940000A2100F095FD0600A41E303727706D1EA9
:10095000E3D108341398083813900028CDDD15989A
:1009600000F07EFC02000B0016A803C800F0F5FCA6
:100970000022394B00F0F8FD16AA03C2C5E700BFFC
:10098000FFFFFFFFFFFFFFFFFFFFFFFFFFFFFF7FF7
:100990003198201A27A94D1C04E0401E0199491ED8
:1009A00001916D1C29783029F7D06946897866292C
:1009B00002D10199491C06E069468978652901D16F
:1009C000149900E000210E9A5418A04200DA441E47
:1009D000002C1DD4844204DA285D342801DD39213D
:1009E00000E030212200681E831801E0641E5B1EB7
:1009F000521E1E788E42F9D0392902D1A95C491CB9
:100A0000A954002A04D50500641C0198401C0190DB
:100A1000019E1395684600786946487000F080FE94
:100A2000406A0078694608700E9D20B2002804DCF8
:100A3000149C0548784410301390684680786628E6
:100A40000CD1761C24E000BF645E000097750000A6
:100A5000A08601000000F03F84D797416846807867
:100A6000672846D130B20321C943884247DBA842F8
:100A700045DA761C02A8008F1299C0B2084203D151
:100A800020B2A84200DC050030B22D1A00D50025A6
:100A900037B2002F00DDBAE00898411C08913021E0
:100AA000059A1154002D05DC02A8008F1299C0B2DE
:100AB000084206D00898411C089169460978059AB1
:100AC00011547842854200DA6E4236B270420B9081
:100AD000AD1920B2854200DA2C0024B2099422001C
:100AE00013990598089BC01800F004FB281B0C9074
:100AF000DAE068464078612818D170201BE020B207
:100B0000A84206DA02A9098F129AC9B2114200D18D
:100B100005006D1E00D5002568464078672802D183
:100B20006520694607E04520694604E0684640784C
:100B3000412801D1502048700898411C0891139910
:100B40000978059A11541398411C002D05DC02A860
:100B5000008F129AC0B2104219D00898421C089215
:100B60006A461278059B1A54002D10DD641E20B2CF
:100B7000854200DA2C0022B20598089BC01800F0CC
:100B8000B9FA24B2089800190890281B0B90059810
:100B90000899401869464978017031B2002903D498
:100BA0002B214170871C03E02D224270871C4E428E
:100BB000002412AD300008E00A2100F045FC15AA1F
:100BC00003C229701598641C6D1C00B20028F3DC68
:100BD000012C08DC6846407820210143652902D1B8
:100BE000302038707F1C002C09D1302038707F1CD9
:100BF00007E0641E12A8005D303038707F1C002CA6
:100C0000F7DC059808994018381A09904CE020B292
:100C100031B288421DDA22B213990598089BC01898
:100C200000F068FA24B2089800190890391B0B915B
:100C3000002D05DC02A9098F129AC9B2114206D013
:100C400069460978059A11540998401C09900C9539
:100C50002AE032B213990598089BC01800F04AFAAE
:100C60000898C0190890A41B002D05DC02A9098F63
:100C7000129AC9B2114205D0411C089169460978FF
:100C8000059A115420B2854200DA2C0022B2139842
:100C9000C1190598089BC01800F02CFA24B20898D6
:100CA00000190890281B0B9002A83821405C1421E1
:100CB0000140102900D0C4E00798089940180B990A
:100CC0004018099940180C9940180F99884200DB88
:100CD000B7E0081A0A90B4E002AA3A20105C622831
:100CE00008D068280ED06A2814D06C281DD071282E
:100CF00010D01AE0349801680868091D349B196007
:100D0000C0B218E0349801680868091D349B196066
:100D100080B210E034980068C31D072083433498E4
:100D2000036003CB349C236006E0349801680868B4
:100D3000091D349B1960002102AB03C3108F129967
:100D4000C0B208425BD002A803C8002901D1002824
:100D500055D0684600782021014378294FD1079863
:100D600018A930220A54401C421C07926A46127885
:100D70000A5444E002AA3A20105C622808D068288D
:100D80000ED06A2814D06C281DD0712810D01AE01B
:100D9000349801680868091D349B196040B218E056
:100DA000349801680868091D349B196000B210E08E
:100DB00034980068C31D072083433498036003CB35
:100DC000349C236006E0349801680868091D349B50
:100DD0001960C11702AB03C3002902DA07982D215D
:100DE00009E0108F284202D007982B2103E0C007AA
:100DF00005D50798202118AA1154401C079018A85F
:100E00000799401805906846017802A800F03EF85E
:100E100017E014980790349800680168001D349A10
:100E2000106018A801700CE014980790252018A9EC
:100E3000087068460078002803D007956846007857
:100E400048700F980799401A0A99401A0899401A51
:100E50000B99401A0999401A0C99401A019002A85E
:100E60003821405C400701D5FFF765FA202069462C
:100E700008700198002801DCFFF75DFA019C329DA3
:100E8000FFF74CFA0020C04335B0F0BDF2B586B094
:100E9000040025696F2901D1082707E00846FFF7FC
:100EA0000BF9782801D00A2700E010273C2603CC54
:100EB000083C04AA03C26A46127E642A03D06A462A
:100EC000127E692A09D1002907DA04A803C8002282
:100ED0000023121A8B4104A80CC004A803C80029DF
:100EE0000DD100280BD1206B002808D1082F3DD14F
:100EF0003820205C000739D53B26302035E00294AD
:100F0000009504A830C8761E0196200029003A00FA
:100F1000FB1700F00DFC3032D0B23A280DDA009801
:100F20008255200029003A00FB1700F001FC040064
:100F30000D0007D1002C05D10AE06846007E82181A
:100F4000AF32ECE70298C068009989198842DAD379
:100F5000029C009D082F09D13820205C000705D590
:100F6000A85D302802D0761E3020A8553C20801B7A
:100F7000A061A919E160216B884206DA081A206293
:100F8000208F1C490140218710E000290ED538210F
:100F9000615C14220A40102A08D1616B6269891AC7
:100FA000226A891A081A002800DD206207B0F0BD05
:100FB000F8B50026104F04000D00009214E0C007A1
:100FC00007D532003B002000290000F0CDFA0400D4
:100FD0000D000098401000903000390032003B00B6
:100FE00000F0C2FA06000F0000980028E7D12000A8
:100FF0002900F4BDEFFF000000002440F8B50024F4
:10100000002B11D007000E0014001D002178B068DD
:10101000B847B060002809D0F06A401CF062002098
:10102000641C6D1EF2D104002000F2BD0020C043FC
:10103000F9E70268531C036011707047C9B2027867
:101040008A4203D0401C002AF9D1002070472E00AC
:1010500080B5002801D100BF07A006490B68002B0E
:1010600003D022220021984701E000F09FFB2220BC
:1010700002BD0000E00F0020636F6E73747261693F
:101080006E742068616E646C65723A2062616420DF
:101090006D65737361676500431C0178401C0942EC
:1010A000FBD1C01A70474300C9B2521E05D3037862
:1010B000401C8B42F9D1401E704700207047FEE76C
:1010C00070B4103A03D378C9103A78C0FBD25307F2
:1010D00001D318C918C001D508C908C0D20704D364
:1010E0000B880380891C801C002A01D50B780370B3
:1010F00070BC70478B0701D18307E1D0124205D045
:101100000B78491C0370401C521EF9D1704710B572
:10111000144600F002F8226010BD4A0053155B1C13
:1011200008D0520D06D003231B02FE3AD21A130533
:10113000C91A70470022704730B4012464054D007D
:10114000EC420BD85D00EC4208D80C001C43640054
:101150000443144304D2994200D1904230BC7047FA
:10116000FCD08B42FAD18242F8E730B40124640506
:101170004D00EC420BD85D00EC4208D80C001C433B
:1011800064000443144304D28B4200D1824230BC39
:101190007047FCD09942FAD19042F8E7124217D436
:1011A0000023DB435B0D9C464B005B0D06D0634583
:1011B00004D09B18634502D2120589187047624615
:1011C000090D11430905002000B500BF00BF00BD97
:1011D00052424B005B0DF1D05B1C5B05EED25B0D08
:1011E000934102D91205891A70470BD10B031B13C7
:1011F000C90FC907821C002043411343E4D91205DB
:101200001143E1E7C90FC9070020DDE7F4464A189A
:1012100005D200F00FF801D580174008604700F0B4
:1012200009F80121C907884200D9080040426047F7
:101230004A1812D2400DC90208430121C9070843C8
:10124000520D40210901521A521C06D452421F323B
:1012500001D4D0407047C017704700207047FEE7A8
:10126000010042221201D21E004207D002D4521EB7
:101270000018FCD5C10A4005120589187047000006
:101280000100EED54042F446FFF7EBFF0122D20702
:1012900011436047F0B40125ED070F005F404FD4C4
:1012A0008B4200D1824205D98446100062468C46AA
:1012B00019006346DF184C18640D7F0D3AD0661C88
:1012C000760537D0E61B352E34DCDB022B43DB0AF8
:1012D0000C0DC9022943C912202E0DDB1700203E38
:1012E00006D01F00F741F3405F400026012A7741F6
:1012F000C01871410DD217E01700F741F240574076
:10130000F3415A40B340F3405A40002680185941F7
:101310000AD3A21C52050FD0C207012F7241170039
:101320004008CB0718434908641C24054208AF4114
:1013300070416141F0BC7047641C21050020F9E751
:101340006B4010E06B40ABE7F742F3D1E943F1E7C4
:101350002442EFD100200021ECE7F0B40125ED0795
:101360000F005F40EED40C00871A9C4105D2C01BD1
:10137000A141D219634169406B40AE0ADF184C1895
:10138000F442E1D2640D7F0DE2D0E61B362ED1DCB3
:10139000DB022B43DB0AA4460C0DC9022943C90A10
:1013A000012E28DC04D1D6075208DF073A435B0838
:1013B000EF0A76429041994114D039423BD1B61997
:1013C00040414941761C394204D1761C00184941FC
:1013D0003942FAD0B9436746B74208D9A41B24055D
:1013E0002143A7E70042EAD13642E8D1A2E7E40A66
:1013F000E10700209EE7202E0BDD203E1F00F3407A
:10140000F7415F40012A002257417E4298419141B5
:101410000BE01700F741F2405740F3415A40B34008
:10142000F3405A407E42904199410A0303D2641E20
:10143000B619404149410027641E24054208AE41C7
:1014400078416141F0BC7047CA0F00D04942031097
:101450005A400DD004B500D3404200F009F8009A7C
:10146000D20701D34942124200D5404204BD0000D8
:10147000094214D088420FD30122030C01D1000489
:101480001204002300185B418B4200D35B1A5241C7
:10149000F8D319001000704701000020704708B50C
:1014A00000F08AF908BDF0B40E005E400125ED079A
:1014B0002E40B446AE0ADF184C18F4423BD2F74235
:1014C00041D2640D43D07F0D38D0E41BC902DB024A
:1014D00029432B43CF0ADB0A0600B61A9F4104D2E8
:1014E000641EB6197F41B6185F416812800D24183A
:1014F0000018844222DCE80C0021B6197F41B61A9C
:101500009F4102D2B6185F413F1C40414941F4D38C
:10151000241C21DD2405B6197F41B61A9F4105D34D
:101520003743C60737430026012F704161416646A5
:101530003143F0BC7047FCD1F74205D20020C143D3
:1015400049054908F3E704D00020C143F1E77F0DC6
:10155000FAD000206146ECE72442FAD1401C6141F8
:101560000F03F6D30020E2E7F0B50E005E40012540
:10157000ED072E40B446AE0ADF184C18F44208D2EC
:10158000F7420ED2640D01D07F0D12D100206146CA
:10159000F0BD05D1F74201D87F0D05D10020C14330
:1015A000F0BDFBD1640DF9D00020C14349054908C5
:1015B0008FE0E419C902DB0229432B43DB0A460D05
:1015C000C00231438E4630B487B295B27D432E0CB3
:1015D000ADB2140C7C43A419260C240425439CB200
:1015E0007C43A419190C7943270CC919A4B20F0420
:1015F0003C43090C000C97B247432E0CBE193543EF
:10160000ADB2170C4743360CBF19A6B2BF193E0442
:101610003543240C3E0C36199FB24743BF19BCB268
:101620003E0C89191F0C47437F183E043443390C84
:10163000704680B297B247432E0CBE193543ADB207
:10164000170C4743360CBF19A6B2BF193E043543E9
:10165000240C3E0C36199FB24743BF19BCB23E0C56
:1016600089191F0C47437F183E043443390C7746D1
:101670003F0C90B278432E0C80190604ADB22E4375
:10168000050CA0B22D18120C7A435019020C80B22E
:10169000240CA4189AB27A43121914042043120C91
:1016A00089181B0C7B43C91830BCEF0A394203D19F
:1016B000B61940414941641E6F12BF0DE41B0BDB9C
:1016C000FF19BC4211DA240500274208AE417841D7
:1016D000614166463143F0BD641C05D1401C614147
:1016E000CF0201D34908F4E750E75DE7613807E02E
:1016F00005E0010061391A2901D201207047413803
:101700001A288041C00F704701000939052901D30B
:10171000202801D1012070470020704702487047FF
:101720000248704700000000880500205005002096
:1017300012422DD0994231D970B500251B4209D0F3
:101740000C00002112E01100FFF792FE0A000021B8
:10175000002370BD0942F6D00024012649186441D7
:10176000944200D3A41A7641F8D33100012601E057
:10177000764109D2001864416D41A41A9D41F7D207
:10178000A4185D41B619F5D3300022002B0070BDBE
:101790001B42CFD108B500F011F808BD01D190422D
:1017A000CAD202000B0000210020704780B5012042
:1017B00000F006F801BDFEE77047FEE77047FEE760
:1017C00080B500BF00BF024A11001820ABBEFBE786
:1017D00026000200000000000000000000000000E1
:1017E00000000000000000000000000000000000F9
:1017F00000000000000000000000000C000C000CC5
:10180000000C000C000C000C000C000C000C000C78
:101810000000000C000C0000000000000000001B95
:10182000001B001B001B001B00000000000000004C
:1018300000000000000000000000000000000000A8
:1018400000008019801980198019C07FC07F80191D
:101850000033C07FC07F003300330033003300000B
:10186000000000000000001E003F807580650074CD
:10187000003C001E00078005806580658075003F84
:10188000001E0004000400000000007000D840D8D2
:10189000C0D880D900730006000C801BC036C0661B
:1018A000C046C00680030000000000000000001ECB
:1018B000003F003300330033001E000CC03CC06604
:1018C000806380618063C03E801C000000000000D7
:1018D0000000000C000C000C000C000C00000000CC
:1018E00000000000000000000000000000000000F8
:1018F0000000000080000001000300060006000454
:10190000000C000C000C000C000C000C0004000685
:101910000006000300018000002000100018000CE9
:10192000000C000400060006000600060006000683
:101930000004000C000C0018001000200000000C37
:10194000002D003F001E00330000000000000000DA
:101950000000000000000000000000000000000087
:10196000000000000000000C000C000C000CC0FF88
:10197000C0FF000C000C000C000C00000000000078
:101980000000000000000000000000000000000057
:101990000000000000000000000000000000000C3B
:1019A000000C00040004000800000000000000001B
:1019B00000000000000000000000001E001E0000EB
:1019C0000000000000000000000000000000000017
:1019D0000000000000000000000000000000000007
:1019E000000000000000000C000C000000000000DF
:1019F00000000003000300030006000600060006C6
:101A0000000C000C000C000C00180018001800005E
:101A1000000000000000001E003F00338061806174
:101A20008061806D806D8061806180610033003FE6
:101A3000001E00000000000000000006000E001E56
:101A40000036002600060006000600060006000616
:101A50000006000600060000000000000000001E56
:101A6000003F807380618061800100030006000CEC
:101A7000001800300060807F807F000000000000C0
:101A80000000001C003E006300630003000E000E17
:101A900000038001800180618073003F001E000010
:101AA0000000000000000006000E000E001E001ED8
:101AB0000016003600360066807F807F0006000634
:101AC00000060000000000000000007F007F0060B2
:101AD00000600060006E007F806380018001806193
:101AE0008073003F001E0000000000000000001E88
:101AF000003F803380610060006E007F80738061F2
:101B0000806180618033003F001E00000000000003
:101B10000000807F807F8001000300030006000634
:101B2000000C000C000C0008001800180018000041
:101B3000000000000000001E003F806380618061A3
:101B40000021001E003F8061806180618061003F54
:101B5000001E0000000000000000001E003F007397
:101B60008061806180618073803F801D8001806121
:101B70000073003F001E0000000000000000000095
:101B8000000000000000000C000C0000000000003D
:101B9000000000000000000C000C0000000000002D
:101BA000000000000000000000000000000C000C1D
:101BB00000000000000000000000000C000C000409
:101BC0000004000800000000000000008000800306
:101BD000000E003800600038000E80038000000016
:101BE00000000000000000000000000000000000F5
:101BF0000000807F807F00000000807F807F0000E9
:101C000000000000000000000000000000000000D4
:101C10000000000000400070001C00078001000769
:101C2000001C0070004000000000000000000000E8
:101C30000000001F803FC071C060C000C001800371
:101C40000007000E000C000C0000000C000C00004F
:101C5000000000000000001E003F803180718063A2
:101C6000806F806D806D806F806700600032003E05
:101C7000001C0000000000000000000E000E001B11
:101C8000001B001B001B80318031803F803F803172
:101C9000C060C060C0600000000000000000007C68
:101CA000007E0063006300630063007E007E0063CB
:101CB000806180618063007F007E00000000000082
:101CC0000000001E003F8031806100600060006005
:101CD00000600060006080618031003F001E0000F5
:101CE000000000000000007C007F006380638061D2
:101CF0008061806180618061806100630063007E3B
:101D0000007C0000000000000000807F807F0060F9
:101D1000006000600060007F007F00600060006085
:101D20000060807F807F0000000000000000807F56
:101D3000807F0060006000600060007F007F0060C6
:101D400000600060006000600060000000000000B3
:101D50000000001E003F8031806100600060006074
:101D600080638063806180618031803F001E00005D
:101D700000000000000080618061806180618061FE
:101D80008061807F807F806180618061806180610F
:101D900080610000000000000000003F003F000CD8
:101DA000000C000C000C000C000C000C000C000CD3
:101DB000000C003F003F0000000000000000800118
:101DC000800180018001800180018001800180010B
:101DD000806180618073003F001E000000000000F1
:101DE0000000C0608061006300660066006C0078DF
:101DF000007C00660066006380618061C060000056
:101E000000000000000000600060006000600060F2
:101E10000060006000600060006000600060807F23
:101E2000807F0000000000000000C071C071C07B16
:101E3000C07AC06AC06AC06EC064C060C060C06062
:101E4000C060C060C0600000000000000000807141
:101E50008071807980798079806D806D806D8065FA
:101E600080678067806780638063000000000000F7
:101E70000000001E003F003380618061806180614E
:101E800080618061806180610033003F001E00003E
:101E9000000000000000007E007F806380618061A0
:101EA00080618063007F007E0060006000600060F1
:101EB00000600000000000000000001E003F003332
:101EC0008061806180618061806180618065806700
:101ED0000033803F401E0000000000000000007E34
:101EE000007F8063806180618063007F007E006688
:101EF0000063006380618061C0600000000000003A
:101F00000000000E001F8031803100300038001EBC
:101F100000078003806180618031003F001E000067
:101F2000000000000000C0FFC0FF000C000C000C0F
:101F3000000C000C000C000C000C000C000C000C41
:101F4000000C0000000000000000806180618061E2
:101F50008061806180618061806180618061806179
:101F60008073003F001E0000000000000000C06001
:101F7000C060C060803180318031001B001B001BBD
:101F8000001B000E000E000E000400000000000008
:101F90000000C0C0C0C0C0C0C0C0C0C0C0CC804C69
:101FA000804C805E8052805280738061806100002E
:101FB000000000000000C0C0806080610033003B72
:101FC000001E000C000C001E001F003B8071806191
:101FD000C0C00000000000000000C0C0806180613F
:101FE00000330033001E001E000C000C000C000C1F
:101FF000000C000C000C0000000000000000803FFE
:10200000803F8001000300030006000C000C001854
:10201000001800300060807F807F0000000000001A
:10202000000F000F000C000C000C000C000C000C4A
:10203000000C000C000C000C000C000C000C000C40
:10204000000F000F0000001800180018000C000C12
:10205000000C000C0006000600060006000300034A
:102060000003000000000000001E001E0006000625
:102070000006000600060006000600060006000630
:102080000006000600060006001E001E0000000CF0
:10209000000C001E001200330033806180610000DC
:1020A0000000000000000000000000000000000030
:1020B0000000000000000000000000000000000020
:1020C0000000000000000000000000000000000010
:1020D000E0FF0000000000380018000C00000000C5
:1020E00000000000000000000000000000000000F0
:1020F00000000000000000000000000000000000E0
:102100000000001F803F80618001801F803F806150
:102110008063807FC0380000000000000000006085
:10212000006000600060006E007F807380618061ED
:10213000806180618073007F006E000000000000FD
:1021400000000000000000000000001E003F80733F
:1021500080610060006080618073003F001E0000AD
:102160000000000000008001800180018001801DCE
:10217000803F807380618061806180618073803F77
:10218000801D0000000000000000000000000000B2
:102190000000001E003F00738061807F807F006030
:1021A0008071003F001E0000000000000000C0071A
:1021B000C00F000C000C807F807F000C000C000C16
:1021C000000C000C000C000C000C000000000000D3
:1021D0000000000000000000801D803F80738061CF
:1021E0008061806180618073803F801D8001806399
:1021F000007F003E00000060006000600060006F33
:10220000807F807180618061806180618061806198
:1022100080610000000000000000000600060000D1
:102220000000003E003E0006000600060006000614
:102230000006000600060000000000000006000680
:1022400000000000003E003E0006000600060006FA
:10225000000600060006000600060046007E003C60
:102260000000006000600060006080610063006644
:10227000006C007C0076006300638061C060000039
:10228000000000000000003E003E000600060006C0
:10229000000600060006000600060006000600060E
:1022A0000006000000000000000000000000000028
:1022B000000080DDC0FFC0CEC0CCC0CCC0CCC0CC44
:1022C000C0CCC0CCC0CC000000000000000000006A
:1022D000000000000000006F807F807180618061DD
:1022E0008061806180618061806100000000000089
:1022F00000000000000000000000001E003F80738E
:1023000080618061806180618073003F001E0000F9
:10231000000000000000000000000000006E007FD0
:10232000807380618061806180618073007F006E56
:10233000006000600060006000000000000000001D
:10234000801D803F807380618061806180618073C7
:10235000803F801D8001800180018001000000001D
:102360000000000000000067803F003900300030AE
:10237000003000300030003000300000000000006D
:1023800000000000000000000000001E803F80618F
:102390000060007F803F80018061007F001E0000A0
:1023A0000000000000000000000800180018007F76
:1023B000007F001800180018001800180018801F6F
:1023C000800F00000000000000000000000000007E
:1023D00000008061806180618061806180618061D6
:1023E0008063807F803D000000000000000000004E
:1023F000000000000000C060803180318031001B8F
:10240000001B001B000E000E000600000000000074
:102410000000000000000000000080DD80DD80DDA5
:10242000005500550055007700770022002200007B
:1024300000000000000000000000000000008061BB
:1024400000330033001E000C000C001E003300336C
:10245000806100000000000000000000000000009B
:1024600080618061803100330033001B001B001B42
:10247000000E000E000E001C007C0070000000002A
:10248000000000000000C07FC07F80010003000644
:10249000000C00180030C07FC07F0000000000006A
:1024A0008003800700060006000600060006000EF6
:1024B000001C001C000E00060006000600060006B8
:1024C00080078003000600060006000600060006DE
:1024D00000060006000600060006000600060006CC
:1024E00000060006000600060038003C000C000C48
:1024F000000C000C000C000E00070007000E000C82
:10250000000C000C000C000C003C00380000000027
:10251000000000000000000000008038807F0047BD
:1025200000000000000000000000000000000000AB
:1025300038B5040014D0250080356868002803D120
:102540002870200000F0A8FC242068602068016842
:10255000012291430160200000F0B2F9012801D16D
:10256000012032BDA06A002802D0200000F066FAE7
:1025700020684168084A0A404260206881682A222F
:1025800091438160FFE72068016801220A430260ED
:10259000200000F0B9FA32BDFFB7FFFFFEB504001E
:1025A0002268D069114609689368009325005C355C
:1025B00020230B4001932023034002930026B94BB4
:1025C00003400FD1029B002B12D0019B002B03D1A3
:1025D000009BDB0000D48CE06969002901D0200059
:1025E0008847F7BD009BB04F1F4003D1AF4B0B4056
:1025F00000D17EE0C30706D5CB0504D501231362C5
:102600002A6B13432B630422830708D5009BDB0747
:1026100005D5022327683B622B6B13432B631042C3
:1026200008D0009BDB0705D523681A622A6B0223BA
:1026300013432B6302070CD5019A002A03D1009A99
:10264000994B134005D0082223681A622B6B1A435A
:102650002A6380221201104007D0480105D5206866
:102660000262286B202101432963286B002836D0A1
:10267000029800280AD00198002802D10098C000D2
:1026800004D56969002901D020008847286B4027BC
:1026900021688968394002D12821014024D02000D6
:1026A00000F0F8FA20688068074019D0EFF3108036
:1026B000012181F3108821688A6840239A438A6047
:1026C00080F31088286A00280AD079498163286A33
:1026D00000F0E0FC002802D0286A816B8847F7BD33
:1026E000200000F019FDF7BD200000F015FD2E635D
:1026F000F7BD2B69012B00D090E01023184200D0C9
:10270000194200D18AE013621020C0432168896811
:10271000490649D5296A0A68526892B2002AE7D068
:102720005C23E35A9A42E3DA6A80096809688906F9
:1027300034D4EFF31081012282F3108822681368E9
:102740005C4F1F40176081F31088EFF31081012266
:1027500082F31088226893680127BB43936081F35A
:102760001088EFF31081012282F3108822689368A9
:102770004027BB43936081F310882021E9622E61DA
:10278000EFF31081012282F3108822681368184049
:10279000106081F31088286A00F040FC5C20205A09
:1027A0006988411A89B235E05C21615A6A88891AC0
:1027B0006A4611806988002972D069460988002913
:1027C0006ED0EFF31081012282F310882268136823
:1027D000394F1F40176081F31088EFF310810122F9
:1027E00082F3108822689368344F1F40976081F30A
:1027F00010882021E9622E616E61EFF310810122C1
:1028000082F31088226813681840106081F31088E2
:1028100068460188200000F080FCF7BD80235B0340
:10282000184207D0009F7F0204D51362200000F0F9
:1028300075FCF7BDDA00802318420AD00B4002D1A4
:10284000009B134005D0A969002929D020008847A2
:10285000F7BD4023184214D00B4012D0EFF3108084
:10286000012181F3108821680A6840239A430A6095
:1028700080F310882020A862AE61200000F04FFC99
:10288000F7BD024005D04A0003D5200000F048FC07
:10289000F7BDC00104D5002902D5200000F041FC9D
:1028A000F7BD00000F080000010000102001000427
:1028B000012D0008FFFEFFFFDFFEFFFFFEFFFFEF21
:1028C000F8B5050000270024286801688D4A0A40F1
:1028D000A96811432A690A4369691143EA690A43ED
:1028E00002604168A04A0A40E9681143416081687A
:1028F0009E4A0A40A96911432A6A0A438260C16A52
:102900000F2291436A6A0A43C262994A1021994B85
:10291000984208D110688007800F1ED0022810D07E
:1029200011D303280BE0944B984210D110680C226D
:10293000024012D0042A06D0082A02D00C2A04D061
:102940000CE002210AE0042108E0082106E08B4A9D
:10295000904202D08A4A904200D1002131A6894893
:1029600080221202EB69934229D1002906D0022964
:1029700008D004291ED008291FD048E000F0A7FE87
:10298000002845D069680091696A4900715AFEF7CC
:102990006FFD40000099490840180099FEF768FD56
:1029A00001001039B04A914231D202400007400F75
:1029B000104324E000F04AFEE2E71000E2E70029BD
:1029C00006D0022908D004291CD008291DD01EE0F9
:1029D00000F07DFE00281BD069680091696A4900FB
:1029E000715AFEF745FD0099490840180099FEF715
:1029F0003FFD010010399C4A914208D280B22968FB
:102A0000C86005E000F022FEE4E71000E4E70124DE
:102A1000280068300121418001808760C760200064
:102A2000F2BD0000010002000400060008000A00D8
:102A30000C00100020004000800000012821415CB3
:102A4000C90706D501684A68884B1340C26A1A4311
:102A50004A602821415C890706D501684A68844B91
:102A60001340026B1A434A602821415C490706D58E
:102A700001684A687F4B1340426B1A434A60282121
:102A8000415C090706D501684A687B4B1340826B9D
:102A90001A434A602821415CC90606D501688A6844
:102AA000764B1340C26B1A438A602821415C890629
:102AB00006D501688A68724B1340026C1A438A601B
:102AC0002821415C490611D501684A686D4B1340C5
:102AD000426C1A434A60426C80235B039A4205D1E0
:102AE0004A68694B1340826C1A434A602821415C52
:102AF000090606D501684A68644B1340C06C184348
:102B000048607047F369FFCFF8B5040000258030B6
:102B1000C56000F001FE07005D4E206800680007F8
:102B200009D500963B00002280218903200000F097
:102B30002BF800280DD12068006840070BD50096BF
:102B40003B0000228021C903200000F01DF800286E
:102B500001D00320F2BD2100803120204860886030
:102B6000E5660D700020F2BDFFCFFFFFFFF4FF11FF
:102B7000541002400038014000440040004800402A
:102B8000004C00400024F400FEB5089F802424017E
:102B90000025060001916846027002933068C06902
:102BA000019901400198814201D1012000E00020FB
:102BB00069460978884254D10020C0438742EDD04D
:102BC00000F0AAFD0299401A874201D3002F1FD1BD
:102BD000EFF31080012181F3108831680A68454BBA
:102BE00013400B6080F31088EFF31080012181F314
:102BF000108831688A6801239A438A6080F31088BC
:102C00003000803020214160816005700320FEBDCE
:102C1000306800684007C1D53068C0692040BDD029
:102C200030680462EFF31080012181F3108831686D
:102C30000A68304B13400B6080F31088EFF310806C
:102C4000012181F3108831688A6801239A438A60E0
:102C500080F3108830008030202141608160C160A5
:102C6000D3E70020FEBD0000F0FF0000FFFFFDFFE6
:102C7000FFFFFEFFFFFFFBFFFF7FFFFFFFEFFFFFF9
:102C8000FFDFFFFFFFFFEFFFFFFF9FFFFFFFF7FFEC
:102C9000FFFFFF0110B5EFF31081012282F31088CE
:102CA00002681368144C1C40146081F31088EFF321
:102CB0001081012282F31088026893680F4C1C4037
:102CC000946081F31088C16E01290BD1EFF310815C
:102CD000012282F31088026813681024A343136052
:102CE00081F310882021882281500021C16601676C
:102CF00010BD00005FFEFFFFDFFEFFFFFEFFFFEFE6
:102D000080B5806A0100563100220A810A8000F0F5
:102D100003FA01BD80B5B648012142680A4342600A
:102D200042681140009100998021490502680A43D8
:102D300002600068014000910098C020C00000F0CF
:102D400003FD01BD38B586B004001422002101A89E
:102D500000F008FD20684E4988422DD14D48802161
:102D60004903C2680A43C260C268114000910099D9
:102D7000012102680A430260026811400091009933
:102D8000022102680A430260006801400091009835
:102D900010200190032402940025039501A9A0208E
:102DA000C00500F0E9FC8020000101900294039529
:102DB00001A9904800F0E0FC07B030BD10B586B026
:102DC00004001422002101A800F0CCFC20688A49EC
:102DD00088421FD102202F4C2168014321602168C5
:102DE000084000900098C0208000019012200290BE
:102DF0000020039004900620059001A97D4800F072
:102E0000BBFC80208003A1680143A160A168084049
:102E10000090009806B010BD70B586B00400142272
:102E20000021684600F09EFC2068744988422DD13C
:102E30001848810CC2680A43C260C26811400591FB
:102E4000059901260168314301600168314005910F
:102E50000599022401682143016000682040059023
:102E60000598E020009001940025029503950495B3
:102E70006946A020C00500F07FFC009601940295F1
:102E80000395049569465B4800F076FC06B070BD7A
:102E90000024014034100240F8B586B0040014222A
:102EA0000021684600F05EFC236801200422022411
:102EB00053490025534EB3421FD18303CE681E43AE
:102EC000CE60CE6833400593059B0B6813430B60BF
:102ED00009680A40059205993021009101940295F4
:102EE000039504906946484800F046FC0022002102
:102EF0001B2000F028FD1B2076E0A026F605434F9E
:102F0000BB421FD142048B6813438B608B681A400D
:102F10000592059A0A6802430A6009680140059112
:102F200005990C210091019402950395049069463E
:102F3000300000F021FC002200211C2000F003FDE5
:102F40001C2051E0324FBB422BD182048B681343CB
:102F50008B608B681A400592059A08220B68134310
:102F60000B600B681A400592059A0A6802430A60D2
:102F70000968084005900598C020800000900194E1
:102F80000295039504956946224800F0F5FBA003DD
:102F90000090019402950395052004906946300045
:102FA0001AE01D4EB34221D1C3048E681E438E60C9
:102FB0008E6833400593059B0B6813430B600968CB
:102FC0000A4005920599C0210901009101940295DA
:102FD0000395049069460C4800F0CEFB00220021C6
:102FE0001D2000F0B0FC1D2000F0B2FC07B0F0BDC9
:102FF0003C100240000400500054004000300140EA
:1030000034100240003801400008005000440040E5
:1030100000480040000C0050004C0040F0B5002873
:1030200009D00100243100222523C35C022B04D0E7
:103030000423C3630A700120F0BD03681C680E25D9
:10304000AC431C60446C334B25681D40256004680C
:1030500025680126B54325602D4C2568AC464025E2
:10306000475D1C253D400127AF4065462F43276043
:10307000C46C856C6C60046D002C06D02468234001
:10308000046D2360836D446D63602523C6540A700C
:103090000020F0BDF8B50021002401262522825C25
:1030A000022A03D00421C16301242EE002681368C0
:1030B0000E25AB43136002681368B3431360436C7F
:1030C000144A1D6815401D60114B1D68AC46402513
:1030D000475D1C253D400127AF4065462F431F60DB
:1030E000C36C856C6B60036D002B06D01B681A40A7
:1030F000036D1A60826D436D5A6025228654242226
:103100008154816B002900D088472000F2BD000067
:1031100004000240FFFEFFFF704770477047704792
:1031200070477047FEB507001BD0A84C3878C00721
:1031300019D5A16838200840E1688025AD02102823
:1031400008D18807800F032806D079686808814273
:1031500034D13BE00828F8D12068054003D07868D6
:10316000002800D1B5E1387880077BD5A0683821E8
:103170000140E268B948BA4D10294ED19207920F2A
:10318000022A4CD0F968002900D196E02168084055
:103190003969014321602068A10D0143216000F0DD
:1031A000BBFA3E0007002068400500D57DE000F036
:1031B000B3FAC01B0328F6D30320FEBDA022D2021F
:1031C000914207D1216882000A43226021680843A6
:1031D000206007E02068A349014021602068A249DF
:1031E00001402160786800280BD000F095FA0600B5
:1031F00020682840B7D100F08FFA801B6528F7D3EC
:10320000DAE700F089FA060020682840ABD000F029
:1032100083FA801B6528F7D3CEE70029B2D1226854
:10322000520502D5FA68002A3ED0626815407A69D4
:1032300012022A43626000290ED1216808403969D0
:1032400001432160A448012122689204520F914059
:10325000FEF70EF9A1490860A148006800F09EFB46
:10326000002821D10225387800070AD5A068382126
:103270000140182931D1206E284002D0B8690028B9
:1032800012D03878400700D4A9E000200190A0684F
:1032900038210140202942D1E06D054000D19EE057
:1032A000B868002800D09AE013E1606805407069B2
:1032B0000002284360603700D4E720688949014054
:1032C000216000F029FA050020684005CAD500F009
:1032D00023FA401B0328F7D36EE7B8690028206E55
:1032E0000ED001210143216600F016FA0600206E7F
:1032F0002840C6D100F010FA801B0328F7D35BE703
:1033000001218843206600F007FA0600206E28405D
:10331000B7D000F001FA801B0328F7D34CE7E8068A
:10332000E16B014008D1E16B0143E163E16B0840CF
:1033300000900098012001906B4D2868C00512D4C0
:10334000A00D0090286800990143296000F0E4F97D
:10335000060028680099014005D100F0DDF9801BC6
:103360000328F6D328E7B8680121012805D00528ED
:10337000E06D06D104220243E265E06D0143E165A0
:1033800005E08843E065E06D04218843E06502269E
:10339000B86800280CD000F0BFF90500E06D30409F
:1033A00016D100F0B9F9401BA4498842F6D303E7CF
:1033B00000F0B2F90500E06D304009D000F0ACF942
:1033C000401B9E498842F6D3F6E600BF001002403B
:1033D0000198002803D0E06B99490140E163F86946
:1033E000002855D0A16838220A40102A52D08026E1
:1033F000B60494490228206838D10140216000F0C9
:103400008BF905002068304005D000F085F9401B9D
:103410000328F7D3D0E6E0688B490140386A0843B7
:10342000796A0143B86A00020843F96A0143386BBC
:103430000843E0602068710801432160E068F10002
:103440000143E16000F068F90500206830401FD1B9
:1034500000F062F9401B0328F7D3ADE6FFC7FFFF7A
:10346000FF80FFFFFFFFFEFFFFFFFBFF014021602A
:1034700000F052F905002068304005D000F04CF90A
:10348000401B0328F7D397E6E06898490140E160C4
:103490000020FEBD01281CD0E0688107890F3A6A30
:1034A000914216D1702101407A6A914211D1FE21D8
:1034B000C9010140BA6A120291420AD1F821890376
:1034C0000140FA6A914204D1400F4007396B8842AB
:1034D000DED00120FEBD00000024F400D80400204E
:1034E000D4040020FFFEFFFF00700040F8B5070085
:1034F00066D000917E4800684007400F884218D28D
:103500007B4C20680721884300990143216000F02B
:1035100003F9009D060020684007400FA84207D02D
:1035200000F0FAF8801B45498842F4D30320F2BD2D
:1035300000953968704C022001420CD0490704D52F
:10354000A168E022D2010A43A260A168694A0A4048
:10355000B9681143A1600725ED433978C90732D511
:103560007968012918D12068800329D5A0682840EE
:103570000143A16000F0D0F83E000700A0683821A8
:1035800001407068C00081421CD000F0C5F8C01B2B
:103590002A498842F2D3C9E7022902D12068800172
:1035A00003E0002903D120684005DFD408E00329A7
:1035B00003D1226E1040D9D102E0E26D1040D5D186
:1035C0000120F2BD37000098494909684907490FB1
:1035D000884217D24648006805400098284344496D
:1035E000086000F099F8009D060041480068400717
:1035F000400FA84206D000F08FF8801B0F49884288
:10360000F3D393E73878400705D5A0683B490140DC
:10361000F8680843A06000F019F83949A26812055B
:10362000120F9200895CC906C90EC840354908606E
:103630003548006800F0B2F9F2BD000089130000BF
:10364000FFFFFFEFFFFFFFFE8C80C11F30B507219A
:103650002F48294C3823A2681A4006D1236801223A
:10366000DB0A19408A4011001EE04208A5681D408F
:10367000082D01D1100030BDA5681D40102D16D1B8
:10368000E368E5682D092940491C7F259B079B0FAE
:10369000032B00D11000FDF7EBFEE168090A0D4095
:1036A0006843E168490F491CFDF7E2FE30BDA068A0
:1036B0001840202802D18020000230BDA0680340BD
:1036C000182B02D1FA20C00130BD002030BD0F48B8
:1036D00001680C4800680F4A4904490F8900515C91
:1036E000C906C90EC840704700000000FCFFFEEF8D
:1036F00000200240FFF0FFFF00100240FF8FFFFF9D
:10370000F8680008D8040020D40400200810024003
:103710000024F400BC69000801484068704700BFFD
:10372000CC04002010B500240B480168820D0A4328
:103730000260032000F032F9002801D0012401E0EA
:10374000FFF7E8FA200010BD04490A68044B134053
:10375000184308607047000000200240000001404C
:10376000FFF9FFFF10B5040008001100020020005F
:1037700000F03CF9200010BDFFB500220F2302939A
:103780002CE0052602E05B4FB842FAD1AE4026435A
:10379000009C2660584C2568DC4325404E68F602A4
:1037A00000D51D43544E3560756825404F68BF02F3
:1037B00000D51D437560514D6E6826404D68AD03C0
:1037C00000D51E434D4D6E602E6834404E68F603A2
:1037D00002D526001C0034432C60521C0B681C00D0
:1037E000D44079D0012595402B40F6D054000327D2
:1037F000A740FE4301964E68B707BF0F012F03D0C5
:10380000B607B60F022E0ED18768019E3E40CF68E4
:10381000A740374387604668AE434D68EF06FF0F09
:103820009740374347600D79AD07AD0F032D25D085
:10383000C568019E2E408D68A5403543C5600D7951
:10384000AD07AD0F022D19D1D508AD0045192E6A6F
:10385000039697001C263E406F463E70039EB4467A
:10386000029F6E463678B7406646BE43B4460F693F
:103870006E463678B740664637432F6207680326A0
:10388000019D3D404F683740BC4627006446BC4020
:103890002C4304604C68350425409ED0184C950894
:1038A000AD0064190094009C2468D70018253D40A1
:1038B000029FAF40BC43A027FF05B84201D10026BC
:1038C00064E7104FB84201D101265FE70E4FB842BE
:1038D00000D058E7022659E7FFBD0069084000D034
:1038E0000120C0B27047002A01D081617047816217
:1038F00070470000000C0050001802408018024081
:1039000060180240000400500008005010B5C200CA
:1039100018231340FF249C40E2438907090E994075
:10392000030004D419489B089B00C01806E0184BFC
:103930000007000F083880088000181803681A4034
:103940001143016010BD80B5FFF7E0FF01BD00002D
:10395000010005D40121C006C00E81400D48016060
:10396000704710B5401E80214904884201D30120D0
:1039700010BD094C606003210020C043FFF7C6FF63
:103980000020A0600721216010BD000000E400E0DD
:103990001CED00E000E100E010E000E070B5060082
:1039A00000240F4D2978002916D0FA208000FDF759
:1039B0005FFD01000B480068FDF75AFDFFF7D1FFDE
:1039C000002809D1042E07D2002231000020C04374
:1039D000FFF7B9FFAE6000E00124200070BD00BF1A
:1039E000CC040020D8040020002200BF094202D0ED
:1039F000491E4254FCD17047EFF31081012282F33B
:103A00001088026820231343036081F310887047F5
:103A1000F8B58AB0FFF786FE00F088FA14216846F0
:103A2000FFF7E2FFCD48016804220A430260016803
:103A30000422114005910599016801220A430260A0
:103A40000168CA07D20F05920599022102680A434C
:103A500002600268114005910599016808220A4335
:103A6000026000680821084005900598BC4C0022BF
:103A70002100BC48FFF737FF00940120019000258A
:103A8000029503956946B748FFF776FEA020C0006F
:103A900000900195029569460005FFF76DFE28200C
:103AA0000090019502956946AE48FFF765FEAE4E5F
:103AB000F62040003018AD4901609621890141602F
:103AC0008560C56005610C2141618561C561056244
:103AD0004562856200230022002100F097FA002849
:103AE00001D000F087FAA248A24981669627BF015B
:103AF000C7660567456785670C21C1673400E434F4
:103B000025606560A560E56025613000CC30FEF77A
:103B10000FFD002801D000F06DFA00213000CC30FC
:103B200000F0D3FA002801D000F064FA0021300040
:103B3000CC3000F0E3FA002801D000F05BFA30004E
:103B4000CC3000F0A5FA002801D000F053FAC548A7
:103B5000A067E767B22040003018056045608560C7
:103B60000C24C460056145618561C5610562AE20B4
:103B700040003018FEF7DCFC002801D000F03AFAD3
:103B80000021AE204000301800F09FFA002801D03C
:103B900000F030FA0021AE204000301800F0AEFAFC
:103BA000002801D000F026FAAE204000301800F0C6
:103BB0006FFA002801D000F01DFA9F208000301815
:103BC000D349016047608560C560056144618561D6
:103BD000C561056245628562FEF7AAFC002801D036
:103BE00000F008FA68460021002200230EC0C948F0
:103BF00030608020C0057060B560F56080200006F0
:103C00003061042070613583B5760120F061202198
:103C100070547562B5622C217554356375633C210F
:103C20007554F564300000F0CEFA002801D000F0A1
:103C3000E1F9B9480090012001906946300000F098
:103C4000D3FB002801D000F0D5F9B44800906946B4
:103C5000300000F0C9FB002801D000F0CBF9C320F0
:103C600080003418AE482060AE486060A560012036
:103C7000E06025616561A561E5612562200000F0D5
:103C8000FDFC002801D000F0B5F90021200000F073
:103C90001FFF002801D000F0ADF90021200000F046
:103CA00034FF002801D000F0A5F930006430029004
:103CB0009D480299486082204000029988600298DD
:103CC000C560E020C0000299086102984561029831
:103CD00085618020C0020299C8610298056202983D
:103CE0004562029885620298C562072002990863BE
:103CF000029845630820029988633000683000F01C
:103D00002DFF002801D000F075F91A48FFF774FE66
:103D10005448FFF771FE1548FFF76EFE7C48FFF729
:103D20006BFE00F09FFF002001F026F90D4F0122ED
:103D300011033800FFF7D7FD012210213800FFF7EB
:103D4000D2FD012291033800FFF7CDFD964801F026
:103D500041FA012001F010F940E000BF34100240A8
:103D60001050000000040050A00000200048004057
:103D70000401002000380140009500230B2200BF01
:103D80009FA18A4801F03AFA894801F0A6FA002872
:103D900002D1874801F0AAFA8548017F012901D1A3
:103DA00001F0D0FA834801F098FA002802D1814846
:103DB00001F09CFA7F48017F012901D101F0C2FA8C
:103DC0007D4801F08AFA002802D17B4801F08EFA82
:103DD0007948017F012901D101F0B4FA77480078D0
:103DE000002801D075490D707548007800282AD048
:103DF00073490D7008213800FFF76FFDC400802162
:103E00004900A020C005FFF768FD800020430400A2
:103E100020213800FFF761FD40002043040080218D
:103E2000C900A020C005FFF758FD010021436548E7
:103E3000C174C9B20E2906D163480078022802D1A4
:103E4000012001F099F8012460480078002819D079
:103E50005E490D7021035E480078012804D10022DC
:103E600003E000BF0044004001223800FFF73BFDA3
:103E70006420315C0120484002990870012801D17A
:103E800001F0EFF853480078002801D051490D7037
:103E9000514801F022FA002802D14F4801F0C4FA3B
:103EA0004E480078012801D101F04AFB48480078CB
:103EB000002809D04A4949684A4A516194744849DE
:103EC000C968494A516194744849097801291ED149
:103ED000464A1570012800D04EE703A81921FFF7C4
:103EE00083FD3F4CE06801F085FC00900191606823
:103EF00001F080FC02000B003FA103A801F094FC3C
:103F000000950023192203A9284801F077F93BE71F
:103F1000004C004000240140100000100080003CD4
:103F2000005400405B3D30000030014010B598B0B7
:103F300034210BA8FFF758FD68460021002200231A
:103F400000241EC01C21FFF74FFD8020800001F0DF
:103F50008BFC02200B90FE300E900F9440201090AE
:103F600012940BA8FFF7DEF8002801D000F042F809
:103F70000720009001940294039400216846FFF703
:103F8000B5FA002801D000F035F8194804900594DE
:103F900006940794099404A801F08CFC002801D031
:103FA00000F028F818B010BDB80B00005004002035
:103FB0002C04002060040020A8040020D00500206C
:103FC000D1050020DC040020F0040020D2050020F0
:103FD000C40F0020D3050020F8030020D70F0020D5
:103FE0009C0F0020200500203805002084040020BC
:103FF0002340000072B6FEE7247225663A2566006B
:1040000024724E6F5F4C6F636B000000F2B50400CA
:1040100017001D00002C14D0260080367068002880
:1040200003D130702000FEF737FF24207060206835
:1040300001680122914301602000FEF741FC012844
:1040400001D10120F2BDA06A002802D02000FEF7B5
:10405000F5FC009821688A688023DB0113438B609C
:1040600021688A68374B13401843886020680168CC
:10407000354A0A40790511432A040A430260206840
:10408000016801220A4302602000FEF73DFDF2BDF7
:1040900030B5010080310A78012A01D1022030BDFB
:1040A00001220A7024224A600268136814680125FC
:1040B000AC43146000224266244C1C40006804603B
:1040C000202048600A70002030BD70B50400250033
:1040D00080352878012801D1022070BD0120287088
:1040E0002420686020680668026801239A43026001
:1040F00020688268D200D208114317E070B504002E
:10410000250080352878012801D1022070BD0120CA
:1041100028702420686020680668026801239A439A
:104120000260206882680A4B1340194381602000B6
:1041300000F010F8206806602020686000202870D9
:1041400070BD0000FF7FFFFFFFFF00FCFFFFFFDFF0
:10415000FFFFFFF1F8B50400606E002802D10120D6
:10416000012517E0206881680901490F00918068E6
:10417000410F00BF0CA600BF09A7785CC000715CAE
:10418000FDF762F905000098385CC0000099715C89
:10419000FDF75AF9210068314D800880F1BD00001B
:1041A00001010103070100000804020408010101E4
:1041B00010B504231940436907248C40A3438A4067
:1041C0001A43426110BDFEB5050000260020009094
:1041D000002D01D10120FEBD2C0054346068002860
:1041E00005D12800FEF7AEFD0020A06020702868F1
:1041F0008168C90014D48168724A0A408021490547
:1042000011438160704800687049FDF731F9401C26
:10421000400001E00098401E009000980028F9D16D
:10422000296888681027C00007D460683843606038
:10423000A06801220243A2600126886862683A40B1
:1042400000D0B9E0400700D5B6E06068604A02409F
:104250000220104360608868C00772D4286B002871
:1042600001D03A0200E000222869002802D540006F
:10427000400800E078040190A87E6B461870AB6897
:10428000287E800318436B7EDB0303436846007877
:10429000400318430243E8681043019A02432C206C
:1042A000285C400010432022AA5C012A0FD16A46F4
:1042B0001278002A03D102003803104307E0626835
:1042C000202313436360A26801231343A3606A6A37
:1042D000002A05D0E0235B0013400343A86A18437B
:1042E000CA683C4B13401843C8606868810F89074F
:1042F000E86C08433C21695C012907D1296C014322
:10430000686C0843A96C01430120084329680A69C5
:10431000314B1340184308616868C0210906884280
:104320000FD0494288420CD080210906884208D02B
:104330002A490B682A4A1A40F0239B03034013437F
:104340000B606A6B00212868FFF732FFAA6B2549D2
:104350002868FFF72DFF29690F20C043002904D1E9
:1043600029688A6A104388620CE07A04914209D174
:1043700029688A6AEA69521E5207D20E9040E268A2
:1043800002438A62286841690220C0434907490FF5
:104390006A6B914207D10021A16061680840012148
:1043A000014361600CE061680840074367600126D3
:1043B000A0683043A06003E060680743676001269F
:1043C0003000FEBDE8FFFF7FD8040020400D030051
:1043D000FFFEFFFF0102FEFF02FCFF1F0827014056
:1043E000FFFFC3FF04FFFF07F1B585B000206A4659
:1043F0005070019005985422805C012801D1022060
:1044000021E1059854300290012505700598066851
:10441000B068400700D509E1019105980069039053
:104420000198406804908949894A8A4880231B067C
:10443000049C022C039C00D1CEE09C4201D084421B
:1044400007D101980068B46A4003400B2043B06272
:1044500080E0019800680F24470302D14000C50E98
:1044600047E0284244D1870743D40425284201D09D
:1044700002253EE0070701D503253AE0C70638D4F8
:10448000850601D5052534E0450601D5062530E031
:10449000050601D507252CE0C50501D5082528E02E
:1044A000850501D5092524E0450501D50A2520E02B
:1044B000050501D50B251CE0C50401D50C2518E028
:1044C000850401D50D2514E0450401D50E2510E025
:1044D000050401D50F250CE0C50301D5102508E022
:1044E000850301D5112504E0400301D5122500E024
:1044F00000250498C006C00E6F4638700298C76841
:10450000BC46684607780F20B84067468743684630
:10451000007885403D430298C56001984068059D3C
:10452000ED6987087F1CBD4214D3019D2D68C0062C
:10453000C00E6F463870B76ABC46684607780F20D1
:10454000B84067468743A80E044068460078844018
:104550003C43B46201988068019C2568059C2468EE
:104560002D026669AE4328403B4D054035436561E9
:1045700001980468234061D01368C8431840374B42
:104580009C4217D180231B04184257D11468214044
:10459000084303431360324800683249FCF768FF60
:1045A000401C0C21484301900198002846D00198F6
:1045B000401EF8E72C4B9C4202D180235B0404E0B0
:1045C0002A4B9C423AD18023DB03184236D114682F
:1045D00021400843034327E09C4201D0844206D196
:1045E00001980068B46A4003400B8443B4620198A8
:1045F0000468234022D01368C8431840174B9C42DC
:1046000003D1136819401A4B0CE0174B9C4203D19D
:1046100013681940174B05E0144B9C420ED11368E8
:104620001940154B03400B43136007E002984068A4
:10463000202101430298416068464570002002999C
:1046400008706846407806B0F0BD0000FFFF3FFEEE
:10465000082701400400008000FFFF07001000B0A1
:10466000D8040020400D0300004000B8002000B432
:10467000FFFF7FFFFFFFFFFEFFFFBFFF70B50400DE
:1046800001D1012070BD2500403500266878002842
:1046900003D12E702000FEF791FB24206870206863
:1046A000016801229143016060686D490140206802
:1046B000016121686B488A6802408A60E1680129CB
:1046C000A16801D1C24301E0842212020A43216899
:1046D0008A60E168022903D18021090122685160C2
:1046E00021684A68604B13434B602168CA681040D8
:1046F000C860206961690143A0690002084321681C
:10470000C860E069216A014320680160206801688F
:1047100001220A4302606E60202068702663AE703A
:10472000002070BDFEB504000F0016001D004030D3
:104730004078202800D090E04020205C012800D163
:104740008BE0012040216054FEF7E6FF01900090CD
:1047500019230122D103200000F09CF800287AD10F
:104760002120210040314870102021004031887004
:1047700000202100403148606662658560633B48E7
:10478000089E618DFF290BD9FF2121850090802390
:104790005B04FF223900200000F082F9019D11E046
:1047A000628D2285009080239B04D2B2F2E7FF2025
:1047B00020850020009080235B04FF223900200028
:1047C00000F06EF9608D00282DD02A003100200005
:1047D00000F08DF800283ED1606A00782168886278
:1047E000606A401C60622248618D09186185218DD4
:1047F00008182085618D0029E4D00004E2D10095DD
:10480000330000228021200000F044F8002822D14B
:10481000608DFF28CBD8628D2285002000908023F8
:104820009B04D2B2CAE731002A00200000F089F8C8
:1048300001000ED120202268D061226853680D4DFE
:104840001D405560220040325070002000239370BC
:104850001070080002D00120FEBD0220FEBD000045
:10486000FFFFFFF0FF7FFFFF0080000200200080BD
:10487000FFFF000000E800FE00688169890701D59C
:1048800000218162012182690A4002D182691143BB
:1048900081617047F8B5002405000F00684602707A
:1048A0001E00286880693840B84201D1012000E02C
:1048B000002069460978884217D10020C04386420B
:1048C000EFD0FEF729FF0699401A864201D3002E49
:1048D000E7D128004030202142680A4342604170FD
:1048E0000021817004700120F2BD0020F2BD70B57E
:1048F00004000D0016002068806980071FD4320074
:104900002900200000F044F8002801D0012070BDEB
:104910000020C0438542EED0FEF7FEFE801B85429C
:1049200001D3002DE7D120004030202142680A4306
:10493000426041700021002282700170E6E7002091
:1049400070BDF8B5202504000E00170020688069AE
:1049500028401BD13A003100200000F019F800284F
:1049600007D1FEF7D9FEC01B864204D3002EEDD13D
:1049700001E00120F2BD2000403041682943416040
:1049800045700021002282700170F2E70020F2BD24
:10499000F1B582B000250068836900260092029C70
:1049A00040341022134046D0C2610191202600E01D
:1049B0000097029800688169890636D4290034D1AD
:1049C00001980021C9438842F3D0FEF7A5FE009963
:1049D000401A0199814201D30029EAD10298006866
:1049E0004168A27883691B040AD57302194007D174
:1049F000202A05D041680B434360FEF78DFE0090EE
:104A0000009F0298006880693040D1D1FEF784FE93
:104A1000C01B1A28F5D360683043606066700020C0
:104A20000021A17020700125EBE7002D01D120218C
:104A3000C1610426012502980268906901210B02D8
:104A4000184202D00E43D36101258A02104206D0DB
:104A5000330008261E43029B1B68DA6101254A02C7
:104A6000104007D030000226064302980068C26159
:104A7000012501E0280011D00298FFF7FDFE029801
:104A800000684168104A0A404260606806436660F8
:104A90002020607000200021A17020702800FEBD41
:104AA000F0B5059C00684568660D084F3743BD4367
:104AB0008905890D12040A4313431C436100490808
:104AC00029434160F0BD000000E800FEFF63FF03E2
:104AD00070B5020040325378202B14D14023C35CC0
:104AE000012B10D00123137024245470046825680E
:104AF0009D43256004682568164E2E402660046894
:104B0000256829431CE0022070BD70B502004032C8
:104B10005378202B12D14023C35C012B0ED00123EC
:104B2000137024245470046825689D43256004682C
:104B30002568094E2E400902314301E0022070BD74
:104B40002160006801680B43036020205070002042
:104B5000107070BDFFEFFFFFFFF0FFFFF8B504001E
:104B600001D10120F2BD82277F000025606A002864
:104B700004D16068B84203D0E56101E02561656158
:104B8000A56226005C367078002803D135702000BD
:104B9000FEF742F9022070702068016840229143BC
:104BA0000160E368E022D200F0200001934203D9C3
:104BB0000021834204D104E080214901934200D0C6
:104BC000A562012263681F40BC46A76884231B02BC
:104BD0003B4067463B439C46277C02231F4063467D
:104BE0001F43636913403B439C46A76953021F4020
:104BF00063461F43BC46277F38233B4067463B4301
:104C00009C462023E75C80231F4063461F43BC462D
:104C1000A36A57033B4067463B4327683B60A36951
:104C20001F0C04231F40BC462423E35C10273B4099
:104C300067463B439C463423E75C08231F4063469A
:104C40001F43E368184038430143206841602068EF
:104C5000C169034B0B40C361756072700020F2BDE7
:104C6000FFF7FFFF80B5AE220021782000F06EF93B
:104C700020220021782000F069F9102200217820FC
:104C800000F064F9B0220021782000F05FF9C8221A
:104C90000021782000F05AF900220021782000F04D
:104CA00055F910220021782000F050F9402200210F
:104CB000782000F04BF981220021782000F046F99D
:104CC000FF220021782000F041F9A1220021782064
:104CD00000F03CF9A6220021782000F037F9A82244
:104CE0000021782000F032F93F220021782000F0E6
:104CF0002DF9A4220021782000F028F9D3220021E8
:104D0000782000F023F900220021782000F01EF91D
:104D1000D5220021782000F019F9F0220021782016
:104D200000F014F9D9220021782000F00FF9222296
:104D30000021782000F00AF9DA220021782000F022
:104D400005F912220021782000F000F9DB22002171
:104D5000782000F0FBF820220021782000F0F6F8FF
:104D60008D220021782000F0F1F814220021782013
:104D700000F0ECF8AF220021782000F0E7F82E22B6
:104D80000021782000F0E2F8002000F028F800F080
:104D900007F85E480021016001214171012002BD38
:104DA00038B500245A4D2200B032D2B2002178200A
:104DB00000F0CCF800220021782000F0C7F8102283
:104DC0000021782000F0C2F88023E0012A18402159
:104DD000782000F0A6F8641C082CE4DB31BD80B517
:104DE000002801D1002200E0FF228021C9004848AC
:104DF000FEF7FCFD01BD802800DB704710B540299F
:104E000011DA434CCB08DB01C018201801234907F5
:104E1000490F8B403D490979002905D0002A05D06A
:104E200001789943017010BD012AF9D101780B4333
:104E3000037010BD354A108051807047FEB50F00D9
:104E4000324909886B465980694649883B78C918B8
:104E5000802909DA2D4949886B46D9806946C98875
:104E60007B78C918402901DB0020FEBD002102919A
:104E700069460870150002E00298401C029079789B
:104E80000298884226D278686A461278203A4A43C5
:104E9000029951184900465A00246846C088029970
:104EA00040186946888003E06A1E9241D20F0AE0EA
:104EB00038788442E0D26846408800193100A14029
:104EC0000904F1D52A006946898880B2FFF793FF6B
:104ED000641CEDE768464088397840180B49088023
:104EE00068460078FEBD70B504000E00150000E0B5
:104EF000641C2078002806D02A003100FFF79EFFAE
:104F000021788842F4D0207870BD0000D80F0020AE
:104F1000DC05002080B50020FFF761FFFFF740FFB0
:104F200001BD7CB51400114A1170002103E0655CDD
:104F300056187570491C9942F9DB642100915B1C7D
:104F40009BB201000A48FFF7EDFB73BDE0B501AB72
:104F500019705A7064210091022301AA01000448CB
:104F6000FFF7E0FB0349087007BD0000DC090020E3
:104F7000AC030020C50F0020F1B5804F387D787557
:104F800029257F4E142468460078002803D0022883
:104F90003AD00DD35FE0FFF7BDFF14210020FFF7EB
:104FA00049FF0122310000BF7AA0FFF79CFF52E0C9
:104FB000FFF7B0FF00210020FFF73CFF0122310086
:104FC00076A0FFF790FF14210020FFF733FF0122A6
:104FD000310000BF74A0FFF786FF6A484121C181FC
:104FE000048229210020FFF725FF0122310000BFA4
:104FF0006FA0FFF778FF4120F8813D8262486E2163
:1050000081810121C18126E0FFF784FF002100207A
:10501000FFF710FF0122310067A0FFF764FF1421A2
:105020000020FFF707FF0122310000BF65A0FFF756
:105030005AFF56482C21C181048229210020FFF704
:10504000F9FE0122310000BF60A0FFF74CFF50487D
:105050002C21C1810582FFF7A3FE684600783875D0
:10506000F1BD78B587B0464E444C207D012802D072
:10507000022844D07DE0434D298AE889FFF7DAFE13
:10508000A87C00280ED0686900F0B4FB02000B0079
:105090002900684600F0C8FB012231006846FFF78E
:1050A00022FF05E00122310028000A30FFF71BFF34
:1050B000218AE089FFF7BEFEA07C00280BD01320D8
:1050C00022562100684600F0AFFB012231006846FD
:1050D000FFF709FF05E00122310020000A30FFF749
:1050E00002FF294CE189A089FFF7A4FE207C00285B
:1050F00039D0627C2100684600F096FB2DE0234CFD
:10510000218AE089FFF796FEA07C00280ED0606916
:1051100000F070FB02000B002100684600F084FBE9
:10512000012231006846FFF7DEFE05E00122310072
:1051300020000A30FFF7D7FE154C218AE089FFF7DF
:1051400079FEA07C00280ED0606900F053FB0200BD
:105150000B002100684600F067FB01223100684621
:10516000FFF7C1FE05E00122310020000A30FFF701
:10517000BAFEFFF715FE08B070BD0000DC04002089
:1051800000000020F40400200C0500202005002071
:1051900038050020454C454E35303900436E7420AB
:1051A0006E2042746E73000056616C75653A200083
:1051B0004275746E3A00000043757272656E742019
:1051C000475053004C41543A200000004C4F4E3A97
:1051D0000000000038B50500FEF79EFA040000202C
:1051E000C043854202D0044800782D18FEF794FA97
:1051F000001BA842FAD331BDCC040020F7B582B021
:105200001F000024002516460AA90978002900D1AC
:10521000B61C009000F056F80121009A5278009BCD
:105220001B789A4201D1019100E00194B6B2864206
:1052300044D20021009811E0039A525C002A01D167
:10524000012F0AD1436806789A550278521C067AD3
:10525000D3B2B34200D300220270491C6A46128ABC
:105260009142E9DB0AA90978002917D10D2142688A
:105270000378D1540178491C037ACAB29A4200D308
:10528000002101700A224368C9B25A540178491CAE
:10529000037ACAB29A4200D3002101700199002911
:1052A0000DD0C068EFF31081012282F310880268EC
:1052B00080231343036081F3108800E00125280058
:1052C00005B0F0BD417803788B4201D2C81A02E0E4
:1052D000007AC01A401880B27047010000200A7896
:1052E00049788A4200D101207047FEE730B500219D
:1052F0000122436844781B5D242B06D182764368E3
:1053000044781B5D4372C27612E0837E012B0FD17D
:10531000C37E5C1CC47644684578645D050009352D
:10532000EC54436844781B5D0A2B01D102778176E7
:105330004278521C4270037AD2B29A4200D3417032
:10534000002030BD78B585B0040001A81021FEF71B
:105350004BFB002500223348242301A9667E012E41
:1053600035D05AD3032E3BD057D2A67A522E0AD02C
:10537000532E0ED0582E18D0722E04D0732E08D073
:10538000782E12D049E00121017046E08B54521C66
:10539000D2B2230009339B5C0D2B01D00A2BF5D12F
:1053A00000950023521C143035E00B70E27A4A70ED
:1053B000032204E08E18761E3370521CD2B22300F2
:1053C00009339B5C0D2B21D00A2BF3D11EE0A07A70
:1053D000542801D0742820D10220FFF7CDFD1CE015
:1053E000A27A532A01D0732A17D10B7030224A7047
:1053F00064228A7002224E1C01E0B354521C230026
:1054000009339B5C0D2B01D00A2BF6D100950023AC
:10541000521C92B2001DFFF7F1FE2577002006B066
:1054200070BD000084040020F0B5444A937B03243F
:105430000226002101251F0005D0022B35D010D3F4
:10544000032B45D024E0917344684678A45D242C56
:105450001ED15173436844781B5D1370012353734D
:1054600016E09573547B45684778ED5D1555641CCF
:10547000E5B2062D0BD1D378472B14D11379472BE6
:1054800011D15379412B0ED1062313730223547388
:1054900093734278521C4270047AD3B2A34200D371
:1054A00000224270F0BD0023F1E79673456846780C
:1054B000AD5D167BC84FBD550D2D01D00A2D00D115
:1054C0000023952E00DB00232A2D11D103230FE0AA
:1054D000947344684678A65D147BBF4F3E550D2EED
:1054E00001D00A2E01D1D5730023952C00DB0023B7
:1054F000147B641C1473CBE7F8B50500B74C21008E
:1055000000F08AFA00F076F900F0D8FA00F004FB17
:1055100000F070F906000F002100280000F02DFBBC
:1055200000F068F90022AE4BFBF7BDFF32003B00F4
:10553000FBF7B0FE00F0F0FAF2BD0000C80F00204B
:10554000F0B585B0A44E2C213000FBF777FD002587
:10555000821B521EA5A1701C00F054FB002800D035
:1055600034E1741C2A21701CFBF768FD03E029005C
:1055700025784D40641C8442F9D1417880780A0036
:10558000303A0A2A00D31F3909010200303A0A2AA8
:1055900001D2303801E008001F380843C1B2EAB236
:1055A000914200D015E18F4C252160542C21300010
:1055B000FBF744FD471C2C213800FBF73FFD06009C
:1055C00070782C2809D0F21B390001A800F032FBBA
:1055D00000F0DDFC00F0A0FA2060771C0F2101A88C
:1055E000FEF702FA2C213800FBF728FD0600707840
:1055F0002C280BD0F21B390001A800F01BFB00F097
:10560000C6FC00F089FAFFF777FF60600127606849
:10561000002100F0C3FC01D0012000E0002028217F
:105620006054701C00900F2101A8FEF7DDF92C21B9
:105630000098FBF703FD060070782C2809D000982D
:10564000321A521E014601A800F0F4FA00980078C0
:105650002072207A532804D16068802109064840CE
:105660006060701C00900F2101A8FEF7BDF92C218D
:105670000098FBF7E3FC060070782C280CD000980B
:10568000321A014601A800F0D5FA00F080FC00F0C3
:1056900043FAFFF731FFE060E068002100F07EFC94
:1056A00000D1002728202754761C0F2101A8FEF7DF
:1056B0009BF92C213000FBF7C1FC41782C2901D04B
:1056C00031782174217C572904D1E16880221206A7
:1056D0005140E160461C0F2101A8FEF785F92C21FD
:1056E0003000FBF7ABFCB04201D031786174461C4E
:1056F0000F2101A8FEF778F92C213000FBF79EFC62
:10570000B04201D03178A174471C0F2101A8FEF7E7
:105710006BF92C213800FBF791FC060070782C28DF
:1057200009D0F21B390001A800F084FA00F02FFC28
:1057300000F0F2F96061771C0F2101A8FEF754F91F
:105740002C213800FBF77AFC060070782C2809D051
:10575000F21B390001A800F06DFA00F018FC00F00F
:10576000DBF9A061761C0F2101A8FEF73DF92C2181
:105770003000FBF763FCB04201D031782177471C41
:105780000F2101A8FEF730F92C213800FBF756FC59
:10579000060070782C2809D0F21B390001A800F00F
:1057A00049FA00F0F4FB00F0B7F92062761C0F21F3
:1057B00001A8FEF719F92C213000FBF73FFCB0429D
:1057C00002D0307824216054252025540020064939
:1057D000C87305B0F0BD0000080000200000C842FA
:1057E00000004E409C0F0020C80F0020474E474746
:1057F00041000000012212060118CA420AD28A4260
:105800000DD83822120609098918C20FD207114390
:105810004007704700D049080909014301E0C10F62
:10582000C90700207047FEE70CB418B583B0040028
:105830000A0006A8029001940020009002AB01A982
:10584000084878441E30FAF73BFC0021019A117099
:10585000002801D40198001B04B0019910BC03B0CA
:10586000084700BFCFB7FFFF10B50E4C21680E4AA6
:105870000A4002432260610D884210D10B48006843
:10588000062148430A49FBF7F3FD401C00E0401E97
:105890006169490503D50028F9D1032010BD002016
:1058A00010BD000000700040FFF9FFFFD804002089
:1058B00040420F00FEB5040000206A4610704E4DB5
:1058C0002168890355D5019080204005296B01404E
:1058D00008D1296B01432963296B08400190019885
:1058E0000120019045480068A90D0143434801602B
:1058F000FDF712FF060041480068C00505D4FDF71A
:105900000BFF801B0328F6D323E0296DC020800005
:1059100008403B4F00280ED0A16988420BD0286D6B
:105920003840296D802252020A432A65296D354A82
:105930000A402A652865C0070FD5FDF7EDFE060071
:10594000286D800709D4FDF7E7FE801B2E498842A9
:10595000F6D303206946087004E0286D0740A0696B
:10596000384328650198002803D0286B2749014057
:1059700029632078C00705D5A86C03218843616896
:105980000143A9642078800705D5A86C0C218843C1
:10599000A1680143A9642078800605D5A86C1C493C
:1059A0000140E0680843A8648020C00121680140EC
:1059B0000DD0A96C8900890862690A43AA646169EB
:1059C0000204914203D1296882000A432A602168B7
:1059D00009050DD5A96C0F4A0A4021691143A96434
:1059E0002169814204D1286880214902014329604C
:1059F00068460078FEBD00000C10024000700040B8
:105A0000FFFCFFFFFFFFFEFF89130000FFFFFFEF1A
:105A1000FFCFFFFFFF3FFFFF30B405004D400122E5
:105A2000D20715404B180418240E25D01B0E2CD07D
:105A3000FF2C31D0FF2B34D0E41A000209021043AE
:105A4000114343084808D10D1B1A02D2641EDB180B
:105A50001B18DB18834200D31B1A4941F9D37F344A
:105A600023DDFF2C05DAE40548086041284330BCFB
:105A70007047FF20C005F9E728001B0E03D0FF2B5D
:105A8000F5D14902F3D0D043F1E7FF2C01D1400218
:105A9000F9D1FF20C005E9E74002F4D1FF2BF8D18E
:105AA000F1E728004902E2D0EDE70B020020244292
:105AB000DCD15B129B1CD9D9D805D7E730B40D00D7
:105AC0002B0002185B415A150023DB439A421FD07A
:105AD00002002B0004186D4101D1002C18D00D4894
